{
  "_format": "hh-sol-artifact-1",
  "contractName": "SuperStudiosNFT",
  "sourceName": "contracts/SuperStudiosNFT.sol",
  "abi": [
    {
      "inputs": [
        {
          "internalType": "address",
          "name": "initialOwner",
          "type": "address"
        }
      ],
      "stateMutability": "nonpayable",
      "type": "constructor"
    },
    {
      "inputs": [
        {
          "internalType": "address",
          "name": "sender",
          "type": "address"
        },
        {
          "internalType": "uint256",
          "name": "balance",
          "type": "uint256"
        },
        {
          "internalType": "uint256",
          "name": "needed",
          "type": "uint256"
        },
        {
          "internalType": "uint256",
          "name": "tokenId",
          "type": "uint256"
        }
      ],
      "name": "ERC1155InsufficientBalance",
      "type": "error"
    },
    {
      "inputs": [
        {
          "internalType": "address",
          "name": "approver",
          "type": "address"
        }
      ],
      "name": "ERC1155InvalidApprover",
      "type": "error"
    },
    {
      "inputs": [
        {
          "internalType": "uint256",
          "name": "idsLength",
          "type": "uint256"
        },
        {
          "internalType": "uint256",
          "name": "valuesLength",
          "type": "uint256"
        }
      ],
      "name": "ERC1155InvalidArrayLength",
      "type": "error"
    },
    {
      "inputs": [
        {
          "internalType": "address",
          "name": "operator",
          "type": "address"
        }
      ],
      "name": "ERC1155InvalidOperator",
      "type": "error"
    },
    {
      "inputs": [
        {
          "internalType": "address",
          "name": "receiver",
          "type": "address"
        }
      ],
      "name": "ERC1155InvalidReceiver",
      "type": "error"
    },
    {
      "inputs": [
        {
          "internalType": "address",
          "name": "sender",
          "type": "address"
        }
      ],
      "name": "ERC1155InvalidSender",
      "type": "error"
    },
    {
      "inputs": [
        {
          "internalType": "address",
          "name": "operator",
          "type": "address"
        },
        {
          "internalType": "address",
          "name": "owner",
          "type": "address"
        }
      ],
      "name": "ERC1155MissingApprovalForAll",
      "type": "error"
    },
    {
      "inputs": [
        {
          "internalType": "address",
          "name": "owner",
          "type": "address"
        }
      ],
      "name": "OwnableInvalidOwner",
      "type": "error"
    },
    {
      "inputs": [
        {
          "internalType": "address",
          "name": "account",
          "type": "address"
        }
      ],
      "name": "OwnableUnauthorizedAccount",
      "type": "error"
    },
    {
      "anonymous": false,
      "inputs": [
        {
          "indexed": true,
          "internalType": "address",
          "name": "account",
          "type": "address"
        },
        {
          "indexed": true,
          "internalType": "address",
          "name": "operator",
          "type": "address"
        },
        {
          "indexed": false,
          "internalType": "bool",
          "name": "approved",
          "type": "bool"
        }
      ],
      "name": "ApprovalForAll",
      "type": "event"
    },
    {
      "anonymous": false,
      "inputs": [
        {
          "indexed": true,
          "internalType": "uint256",
          "name": "tokenId",
          "type": "uint256"
        },
        {
          "indexed": true,
          "internalType": "address",
          "name": "user",
          "type": "address"
        }
      ],
      "name": "NFTConsumed",
      "type": "event"
    },
    {
      "anonymous": false,
      "inputs": [
        {
          "indexed": true,
          "internalType": "address",
          "name": "previousOwner",
          "type": "address"
        },
        {
          "indexed": true,
          "internalType": "address",
          "name": "newOwner",
          "type": "address"
        }
      ],
      "name": "OwnershipTransferred",
      "type": "event"
    },
    {
      "anonymous": false,
      "inputs": [
        {
          "indexed": true,
          "internalType": "address",
          "name": "operator",
          "type": "address"
        },
        {
          "indexed": true,
          "internalType": "address",
          "name": "from",
          "type": "address"
        },
        {
          "indexed": true,
          "internalType": "address",
          "name": "to",
          "type": "address"
        },
        {
          "indexed": false,
          "internalType": "uint256[]",
          "name": "ids",
          "type": "uint256[]"
        },
        {
          "indexed": false,
          "internalType": "uint256[]",
          "name": "values",
          "type": "uint256[]"
        }
      ],
      "name": "TransferBatch",
      "type": "event"
    },
    {
      "anonymous": false,
      "inputs": [
        {
          "indexed": true,
          "internalType": "address",
          "name": "operator",
          "type": "address"
        },
        {
          "indexed": true,
          "internalType": "address",
          "name": "from",
          "type": "address"
        },
        {
          "indexed": true,
          "internalType": "address",
          "name": "to",
          "type": "address"
        },
        {
          "indexed": false,
          "internalType": "uint256",
          "name": "id",
          "type": "uint256"
        },
        {
          "indexed": false,
          "internalType": "uint256",
          "name": "value",
          "type": "uint256"
        }
      ],
      "name": "TransferSingle",
      "type": "event"
    },
    {
      "anonymous": false,
      "inputs": [
        {
          "indexed": false,
          "internalType": "string",
          "name": "value",
          "type": "string"
        },
        {
          "indexed": true,
          "internalType": "uint256",
          "name": "id",
          "type": "uint256"
        }
      ],
      "name": "URI",
      "type": "event"
    },
    {
      "inputs": [
        {
          "internalType": "address",
          "name": "account",
          "type": "address"
        },
        {
          "internalType": "uint256",
          "name": "id",
          "type": "uint256"
        }
      ],
      "name": "balanceOf",
      "outputs": [
        {
          "internalType": "uint256",
          "name": "",
          "type": "uint256"
        }
      ],
      "stateMutability": "view",
      "type": "function"
    },
    {
      "inputs": [
        {
          "internalType": "address[]",
          "name": "accounts",
          "type": "address[]"
        },
        {
          "internalType": "uint256[]",
          "name": "ids",
          "type": "uint256[]"
        }
      ],
      "name": "balanceOfBatch",
      "outputs": [
        {
          "internalType": "uint256[]",
          "name": "",
          "type": "uint256[]"
        }
      ],
      "stateMutability": "view",
      "type": "function"
    },
    {
      "inputs": [
        {
          "internalType": "address",
          "name": "account",
          "type": "address"
        },
        {
          "internalType": "uint256",
          "name": "id",
          "type": "uint256"
        },
        {
          "internalType": "uint256",
          "name": "value",
          "type": "uint256"
        }
      ],
      "name": "burn",
      "outputs": [],
      "stateMutability": "nonpayable",
      "type": "function"
    },
    {
      "inputs": [
        {
          "internalType": "address",
          "name": "account",
          "type": "address"
        },
        {
          "internalType": "uint256[]",
          "name": "ids",
          "type": "uint256[]"
        },
        {
          "internalType": "uint256[]",
          "name": "values",
          "type": "uint256[]"
        }
      ],
      "name": "burnBatch",
      "outputs": [],
      "stateMutability": "nonpayable",
      "type": "function"
    },
    {
      "inputs": [
        {
          "internalType": "address",
          "name": "account",
          "type": "address"
        },
        {
          "internalType": "uint256",
          "name": "id",
          "type": "uint256"
        }
      ],
      "name": "consumeAccess",
      "outputs": [],
      "stateMutability": "nonpayable",
      "type": "function"
    },
    {
      "inputs": [
        {
          "internalType": "uint256",
          "name": "id",
          "type": "uint256"
        }
      ],
      "name": "exists",
      "outputs": [
        {
          "internalType": "bool",
          "name": "",
          "type": "bool"
        }
      ],
      "stateMutability": "view",
      "type": "function"
    },
    {
      "inputs": [
        {
          "internalType": "uint256",
          "name": "",
          "type": "uint256"
        },
        {
          "internalType": "address",
          "name": "",
          "type": "address"
        }
      ],
      "name": "hasConsumed",
      "outputs": [
        {
          "internalType": "bool",
          "name": "",
          "type": "bool"
        }
      ],
      "stateMutability": "view",
      "type": "function"
    },
    {
      "inputs": [
        {
          "internalType": "address",
          "name": "account",
          "type": "address"
        },
        {
          "internalType": "address",
          "name": "operator",
          "type": "address"
        }
      ],
      "name": "isApprovedForAll",
      "outputs": [
        {
          "internalType": "bool",
          "name": "",
          "type": "bool"
        }
      ],
      "stateMutability": "view",
      "type": "function"
    },
    {
      "inputs": [
        {
          "internalType": "address",
          "name": "account",
          "type": "address"
        },
        {
          "internalType": "uint256",
          "name": "id",
          "type": "uint256"
        }
      ],
      "name": "isValidAccess",
      "outputs": [
        {
          "internalType": "bool",
          "name": "",
          "type": "bool"
        }
      ],
      "stateMutability": "view",
      "type": "function"
    },
    {
      "inputs": [
        {
          "internalType": "address",
          "name": "account",
          "type": "address"
        },
        {
          "internalType": "uint256",
          "name": "id",
          "type": "uint256"
        },
        {
          "internalType": "uint256",
          "name": "amount",
          "type": "uint256"
        },
        {
          "internalType": "string",
          "name": "tokenUri",
          "type": "string"
        },
        {
          "internalType": "bytes",
          "name": "data",
          "type": "bytes"
        }
      ],
      "name": "mint",
      "outputs": [],
      "stateMutability": "nonpayable",
      "type": "function"
    },
    {
      "inputs": [
        {
          "internalType": "address",
          "name": "to",
          "type": "address"
        },
        {
          "internalType": "uint256[]",
          "name": "ids",
          "type": "uint256[]"
        },
        {
          "internalType": "uint256[]",
          "name": "amounts",
          "type": "uint256[]"
        },
        {
          "internalType": "string[]",
          "name": "uris",
          "type": "string[]"
        },
        {
          "internalType": "bytes",
          "name": "data",
          "type": "bytes"
        }
      ],
      "name": "mintBatch",
      "outputs": [],
      "stateMutability": "nonpayable",
      "type": "function"
    },
    {
      "inputs": [],
      "name": "name",
      "outputs": [
        {
          "internalType": "string",
          "name": "",
          "type": "string"
        }
      ],
      "stateMutability": "view",
      "type": "function"
    },
    {
      "inputs": [],
      "name": "owner",
      "outputs": [
        {
          "internalType": "address",
          "name": "",
          "type": "address"
        }
      ],
      "stateMutability": "view",
      "type": "function"
    },
    {
      "inputs": [],
      "name": "renounceOwnership",
      "outputs": [],
      "stateMutability": "nonpayable",
      "type": "function"
    },
    {
      "inputs": [
        {
          "internalType": "address",
          "name": "from",
          "type": "address"
        },
        {
          "internalType": "address",
          "name": "to",
          "type": "address"
        },
        {
          "internalType": "uint256[]",
          "name": "ids",
          "type": "uint256[]"
        },
        {
          "internalType": "uint256[]",
          "name": "values",
          "type": "uint256[]"
        },
        {
          "internalType": "bytes",
          "name": "data",
          "type": "bytes"
        }
      ],
      "name": "safeBatchTransferFrom",
      "outputs": [],
      "stateMutability": "nonpayable",
      "type": "function"
    },
    {
      "inputs": [
        {
          "internalType": "address",
          "name": "from",
          "type": "address"
        },
        {
          "internalType": "address",
          "name": "to",
          "type": "address"
        },
        {
          "internalType": "uint256",
          "name": "id",
          "type": "uint256"
        },
        {
          "internalType": "uint256",
          "name": "value",
          "type": "uint256"
        },
        {
          "internalType": "bytes",
          "name": "data",
          "type": "bytes"
        }
      ],
      "name": "safeTransferFrom",
      "outputs": [],
      "stateMutability": "nonpayable",
      "type": "function"
    },
    {
      "inputs": [
        {
          "internalType": "address",
          "name": "operator",
          "type": "address"
        },
        {
          "internalType": "bool",
          "name": "approved",
          "type": "bool"
        }
      ],
      "name": "setApprovalForAll",
      "outputs": [],
      "stateMutability": "nonpayable",
      "type": "function"
    },
    {
      "inputs": [
        {
          "internalType": "bytes4",
          "name": "interfaceId",
          "type": "bytes4"
        }
      ],
      "name": "supportsInterface",
      "outputs": [
        {
          "internalType": "bool",
          "name": "",
          "type": "bool"
        }
      ],
      "stateMutability": "view",
      "type": "function"
    },
    {
      "inputs": [],
      "name": "symbol",
      "outputs": [
        {
          "internalType": "string",
          "name": "",
          "type": "string"
        }
      ],
      "stateMutability": "view",
      "type": "function"
    },
    {
      "inputs": [],
      "name": "totalSupply",
      "outputs": [
        {
          "internalType": "uint256",
          "name": "",
          "type": "uint256"
        }
      ],
      "stateMutability": "view",
      "type": "function"
    },
    {
      "inputs": [
        {
          "internalType": "uint256",
          "name": "id",
          "type": "uint256"
        }
      ],
      "name": "totalSupply",
      "outputs": [
        {
          "internalType": "uint256",
          "name": "",
          "type": "uint256"
        }
      ],
      "stateMutability": "view",
      "type": "function"
    },
    {
      "inputs": [
        {
          "internalType": "address",
          "name": "newOwner",
          "type": "address"
        }
      ],
      "name": "transferOwnership",
      "outputs": [],
      "stateMutability": "nonpayable",
      "type": "function"
    },
    {
      "inputs": [
        {
          "internalType": "uint256",
          "name": "tokenId",
          "type": "uint256"
        }
      ],
      "name": "uri",
      "outputs": [
        {
          "internalType": "string",
          "name": "",
          "type": "string"
        }
      ],
      "stateMutability": "view",
      "type": "function"
    }
  ],
  "bytecode": "0x60806040526040518060400160405280601881526020017f53757065722053747564696f7320436f6c6c656374696f6e0000000000000000815250600690816200004a9190620004cb565b506040518060400160405280600581526020017f535550455200000000000000000000000000000000000000000000000000000081525060079081620000919190620004cb565b503480156200009f57600080fd5b5060405162003ce038038062003ce08339818101604052810190620000c591906200061c565b8060405180602001604052806000815250620000e7816200017660201b60201c565b50600073ffffffffffffffffffffffffffffffffffffffff168173ffffffffffffffffffffffffffffffffffffffff16036200015d5760006040517f1e4fbdf70000000000000000000000000000000000000000000000000000000081526004016200015491906200065f565b60405180910390fd5b6200016e816200018b60201b60201c565b50506200067c565b8060029081620001879190620004cb565b5050565b6000600360009054906101000a900473ffffffffffffffffffffffffffffffffffffffff16905081600360006101000a81548173ffffffffffffffffffffffffffffffffffffffff021916908373ffffffffffffffffffffffffffffffffffffffff1602179055508173ffffffffffffffffffffffffffffffffffffffff168173ffffffffffffffffffffffffffffffffffffffff167f8be0079c531659141344cd1fd0a4f28419497f9722a3daafe3b4186f6b6457e060405160405180910390a35050565b600081519050919050565b7f4e487b7100000000000000000000000000000000000000000000000000000000600052604160045260246000fd5b7f4e487b7100000000000000000000000000000000000000000000000000000000600052602260045260246000fd5b60006002820490506001821680620002d357607f821691505b602082108103620002e957620002e86200028b565b5b50919050565b60008190508160005260206000209050919050565b60006020601f8301049050919050565b600082821b905092915050565b600060088302620003537fffffffffffffffffffffffffffffffffffffffffffffffffffffffffffffffff8262000314565b6200035f868362000314565b95508019841693508086168417925050509392505050565b6000819050919050565b6000819050919050565b6000620003ac620003a6620003a08462000377565b62000381565b62000377565b9050919050565b6000819050919050565b620003c8836200038b565b620003e0620003d782620003b3565b84845462000321565b825550505050565b600090565b620003f7620003e8565b62000404818484620003bd565b505050565b5b818110156200042c5762000420600082620003ed565b6001810190506200040a565b5050565b601f8211156200047b576200044581620002ef565b620004508462000304565b8101602085101562000460578190505b620004786200046f8562000304565b83018262000409565b50505b505050565b600082821c905092915050565b6000620004a06000198460080262000480565b1980831691505092915050565b6000620004bb83836200048d565b9150826002028217905092915050565b620004d68262000251565b67ffffffffffffffff811115620004f257620004f16200025c565b5b620004fe8254620002ba565b6200050b82828562000430565b600060209050601f8311600181146200054357600084156200052e578287015190505b6200053a8582620004ad565b865550620005aa565b601f1984166200055386620002ef565b60005b828110156200057d5784890151825560018201915060208501945060208101905062000556565b868310156200059d578489015162000599601f8916826200048d565b8355505b6001600288020188555050505b505050505050565b600080fd5b600073ffffffffffffffffffffffffffffffffffffffff82169050919050565b6000620005e482620005b7565b9050919050565b620005f681620005d7565b81146200060257600080fd5b50565b6000815190506200061681620005eb565b92915050565b600060208284031215620006355762000634620005b2565b5b6000620006458482850162000605565b91505092915050565b6200065981620005d7565b82525050565b60006020820190506200067660008301846200064e565b92915050565b613654806200068c6000396000f3fe608060405234801561001057600080fd5b506004361061014c5760003560e01c80638da5cb5b116100c3578063cd45738a1161007c578063cd45738a146103af578063e985e9c5146103cb578063f01c4500146103fb578063f242432a1461042b578063f2fde38b14610447578063f5298aca146104635761014c565b80638da5cb5b146102ef57806395d89b411461030d578063a22cb4651461032b578063a4b645eb14610347578063b9571e8414610363578063bd85b0391461037f5761014c565b806318160ddd1161011557806318160ddd1461022f5780632eb2c2d61461024d5780634e1273f4146102695780634f558e79146102995780636b20c454146102c9578063715018a6146102e55761014c565b8062fdd58e1461015157806301ffc9a71461018157806306fdde03146101b15780630e89341c146101cf57806311cf8e47146101ff575b600080fd5b61016b60048036038101906101669190612238565b61047f565b6040516101789190612287565b60405180910390f35b61019b600480360381019061019691906122fa565b6104d9565b6040516101a89190612342565b60405180910390f35b6101b96105bb565b6040516101c691906123ed565b60405180910390f35b6101e960048036038101906101e4919061240f565b610649565b6040516101f691906123ed565b60405180910390f35b6102196004803603810190610214919061243c565b6106ee565b6040516102269190612342565b60405180910390f35b61023761071d565b6040516102449190612287565b60405180910390f35b61026760048036038101906102629190612679565b610727565b005b610283600480360381019061027e919061280b565b6107cf565b6040516102909190612941565b60405180910390f35b6102b360048036038101906102ae919061240f565b6108de565b6040516102c09190612342565b60405180910390f35b6102e360048036038101906102de9190612963565b6108f2565b005b6102ed61099e565b005b6102f76109b2565b60405161030491906129fd565b60405180910390f35b6103156109dc565b60405161032291906123ed565b60405180910390f35b61034560048036038101906103409190612a44565b610a6a565b005b610361600480360381019061035c9190612b25565b610a80565b005b61037d60048036038101906103789190612cb9565b610abc565b005b6103996004803603810190610394919061240f565b610b90565b6040516103a69190612287565b60405180910390f35b6103c960048036038101906103c49190612238565b610bad565b005b6103e560048036038101906103e09190612da4565b610d50565b6040516103f29190612342565b60405180910390f35b61041560048036038101906104109190612238565b610de4565b6040516104229190612342565b60405180910390f35b61044560048036038101906104409190612de4565b610e61565b005b610461600480360381019061045c9190612e7b565b610f09565b005b61047d60048036038101906104789190612ea8565b610f8f565b005b600080600083815260200190815260200160002060008473ffffffffffffffffffffffffffffffffffffffff1673ffffffffffffffffffffffffffffffffffffffff16815260200190815260200160002054905092915050565b60007fd9b67a26000000000000000000000000000000000000000000000000000000007bffffffffffffffffffffffffffffffffffffffffffffffffffffffff1916827bffffffffffffffffffffffffffffffffffffffffffffffffffffffff191614806105a457507f0e89341c000000000000000000000000000000000000000000000000000000007bffffffffffffffffffffffffffffffffffffffffffffffffffffffff1916827bffffffffffffffffffffffffffffffffffffffffffffffffffffffff1916145b806105b457506105b38261103b565b5b9050919050565b600680546105c890612f2a565b80601f01602080910402602001604051908101604052809291908181526020018280546105f490612f2a565b80156106415780601f1061061657610100808354040283529160200191610641565b820191906000526020600020905b81548152906001019060200180831161062457829003601f168201915b505050505081565b606060086000838152602001908152602001600020805461066990612f2a565b80601f016020809104026020016040519081016040528092919081815260200182805461069590612f2a565b80156106e25780601f106106b7576101008083540402835291602001916106e2565b820191906000526020600020905b8154815290600101906020018083116106c557829003601f168201915b50505050509050919050565b60096020528160005260406000206020528060005260406000206000915091509054906101000a900460ff1681565b6000600554905090565b60006107316110a5565b90508073ffffffffffffffffffffffffffffffffffffffff168673ffffffffffffffffffffffffffffffffffffffff161415801561077657506107748682610d50565b155b156107ba5780866040517fe237d9220000000000000000000000000000000000000000000000000000000081526004016107b1929190612f5b565b60405180910390fd5b6107c786868686866110ad565b505050505050565b6060815183511461081b57815183516040517f5b059991000000000000000000000000000000000000000000000000000000008152600401610812929190612f84565b60405180910390fd5b6000835167ffffffffffffffff81111561083857610837612481565b5b6040519080825280602002602001820160405280156108665781602001602082028036833780820191505090505b50905060005b84518110156108d3576108a361088b82876111a590919063ffffffff16565b61089e83876111b990919063ffffffff16565b61047f565b8282815181106108b6576108b5612fad565b5b602002602001018181525050806108cc9061300b565b905061086c565b508091505092915050565b6000806108ea83610b90565b119050919050565b6108fa6110a5565b73ffffffffffffffffffffffffffffffffffffffff168373ffffffffffffffffffffffffffffffffffffffff161415801561094357506109418361093c6110a5565b610d50565b155b1561098e576109506110a5565b836040517fe237d922000000000000000000000000000000000000000000000000000000008152600401610985929190612f5b565b60405180910390fd5b6109998383836111cd565b505050565b6109a6611261565b6109b060006112e8565b565b6000600360009054906101000a900473ffffffffffffffffffffffffffffffffffffffff16905090565b600780546109e990612f2a565b80601f0160208091040260200160405190810160405280929190818152602001828054610a1590612f2a565b8015610a625780601f10610a3757610100808354040283529160200191610a62565b820191906000526020600020905b815481529060010190602001808311610a4557829003601f168201915b505050505081565b610a7c610a756110a5565b83836113ae565b5050565b610a88611261565b610a948585858461151e565b81600860008681526020019081526020016000209081610ab491906131ff565b505050505050565b610ac4611261565b8151845114610b08576040517f08c379a0000000000000000000000000000000000000000000000000000000008152600401610aff9061331d565b60405180910390fd5b610b14858585846115b7565b60005b8451811015610b8857828181518110610b3357610b32612fad565b5b602002602001015160086000878481518110610b5257610b51612fad565b5b602002602001015181526020019081526020016000209081610b7491906131ff565b508080610b809061300b565b915050610b17565b505050505050565b600060046000838152602001908152602001600020549050919050565b610bb5611261565b6000610bc1838361047f565b11610c01576040517f08c379a0000000000000000000000000000000000000000000000000000000008152600401610bf890613389565b60405180910390fd5b6009600082815260200190815260200160002060008373ffffffffffffffffffffffffffffffffffffffff1673ffffffffffffffffffffffffffffffffffffffff16815260200190815260200160002060009054906101000a900460ff1615610c9f576040517f08c379a0000000000000000000000000000000000000000000000000000000008152600401610c96906133f5565b60405180910390fd5b60016009600083815260200190815260200160002060008473ffffffffffffffffffffffffffffffffffffffff1673ffffffffffffffffffffffffffffffffffffffff16815260200190815260200160002060006101000a81548160ff0219169083151502179055508173ffffffffffffffffffffffffffffffffffffffff16817f9511bb4e559bae0e83e75fe34e8c344f5284298878acbcf6350066fb4911d7ab60405160405180910390a35050565b6000600160008473ffffffffffffffffffffffffffffffffffffffff1673ffffffffffffffffffffffffffffffffffffffff16815260200190815260200160002060008373ffffffffffffffffffffffffffffffffffffffff1673ffffffffffffffffffffffffffffffffffffffff16815260200190815260200160002060009054906101000a900460ff16905092915050565b600080610df1848461047f565b118015610e5957506009600083815260200190815260200160002060008473ffffffffffffffffffffffffffffffffffffffff1673ffffffffffffffffffffffffffffffffffffffff16815260200190815260200160002060009054906101000a900460ff16155b905092915050565b6000610e6b6110a5565b90508073ffffffffffffffffffffffffffffffffffffffff168673ffffffffffffffffffffffffffffffffffffffff1614158015610eb05750610eae8682610d50565b155b15610ef45780866040517fe237d922000000000000000000000000000000000000000000000000000000008152600401610eeb929190612f5b565b60405180910390fd5b610f01868686868661163d565b505050505050565b610f11611261565b600073ffffffffffffffffffffffffffffffffffffffff168173ffffffffffffffffffffffffffffffffffffffff1603610f835760006040517f1e4fbdf7000000000000000000000000000000000000000000000000000000008152600401610f7a91906129fd565b60405180910390fd5b610f8c816112e8565b50565b610f976110a5565b73ffffffffffffffffffffffffffffffffffffffff168373ffffffffffffffffffffffffffffffffffffffff1614158015610fe05750610fde83610fd96110a5565b610d50565b155b1561102b57610fed6110a5565b836040517fe237d922000000000000000000000000000000000000000000000000000000008152600401611022929190612f5b565b60405180910390fd5b611036838383611748565b505050565b60007f01ffc9a7000000000000000000000000000000000000000000000000000000007bffffffffffffffffffffffffffffffffffffffffffffffffffffffff1916827bffffffffffffffffffffffffffffffffffffffffffffffffffffffff1916149050919050565b600033905090565b600073ffffffffffffffffffffffffffffffffffffffff168473ffffffffffffffffffffffffffffffffffffffff160361111f5760006040517f57f447ce00000000000000000000000000000000000000000000000000000000815260040161111691906129fd565b60405180910390fd5b600073ffffffffffffffffffffffffffffffffffffffff168573ffffffffffffffffffffffffffffffffffffffff16036111915760006040517f01a8351400000000000000000000000000000000000000000000000000000000815260040161118891906129fd565b60405180910390fd5b61119e85858585856117ef565b5050505050565b600060208202602084010151905092915050565b600060208202602084010151905092915050565b600073ffffffffffffffffffffffffffffffffffffffff168373ffffffffffffffffffffffffffffffffffffffff160361123f5760006040517f01a8351400000000000000000000000000000000000000000000000000000000815260040161123691906129fd565b60405180910390fd5b61125c8360008484604051806020016040528060008152506117ef565b505050565b6112696110a5565b73ffffffffffffffffffffffffffffffffffffffff166112876109b2565b73ffffffffffffffffffffffffffffffffffffffff16146112e6576112aa6110a5565b6040517f118cdaa70000000000000000000000000000000000000000000000000000000081526004016112dd91906129fd565b60405180910390fd5b565b6000600360009054906101000a900473ffffffffffffffffffffffffffffffffffffffff16905081600360006101000a81548173ffffffffffffffffffffffffffffffffffffffff021916908373ffffffffffffffffffffffffffffffffffffffff1602179055508173ffffffffffffffffffffffffffffffffffffffff168173ffffffffffffffffffffffffffffffffffffffff167f8be0079c531659141344cd1fd0a4f28419497f9722a3daafe3b4186f6b6457e060405160405180910390a35050565b600073ffffffffffffffffffffffffffffffffffffffff168273ffffffffffffffffffffffffffffffffffffffff16036114205760006040517fced3e10000000000000000000000000000000000000000000000000000000000815260040161141791906129fd565b60405180910390fd5b80600160008573ffffffffffffffffffffffffffffffffffffffff1673ffffffffffffffffffffffffffffffffffffffff16815260200190815260200160002060008473ffffffffffffffffffffffffffffffffffffffff1673ffffffffffffffffffffffffffffffffffffffff16815260200190815260200160002060006101000a81548160ff0219169083151502179055508173ffffffffffffffffffffffffffffffffffffffff168373ffffffffffffffffffffffffffffffffffffffff167f17307eab39ab6107e8899845ad3d59bd9653f200f220920489ca2b5937696c31836040516115119190612342565b60405180910390a3505050565b600073ffffffffffffffffffffffffffffffffffffffff168473ffffffffffffffffffffffffffffffffffffffff16036115905760006040517f57f447ce00000000000000000000000000000000000000000000000000000000815260040161158791906129fd565b60405180910390fd5b60008061159d85856118a1565b915091506115af6000878484876117ef565b505050505050565b600073ffffffffffffffffffffffffffffffffffffffff168473ffffffffffffffffffffffffffffffffffffffff16036116295760006040517f57f447ce00000000000000000000000000000000000000000000000000000000815260040161162091906129fd565b60405180910390fd5b6116376000858585856117ef565b50505050565b600073ffffffffffffffffffffffffffffffffffffffff168473ffffffffffffffffffffffffffffffffffffffff16036116af5760006040517f57f447ce0000000000000000000000000000000000000000000000000000000081526004016116a691906129fd565b60405180910390fd5b600073ffffffffffffffffffffffffffffffffffffffff168573ffffffffffffffffffffffffffffffffffffffff16036117215760006040517f01a8351400000000000000000000000000000000000000000000000000000000815260040161171891906129fd565b60405180910390fd5b60008061172e85856118a1565b9150915061173f87878484876117ef565b50505050505050565b600073ffffffffffffffffffffffffffffffffffffffff168373ffffffffffffffffffffffffffffffffffffffff16036117ba5760006040517f01a835140000000000000000000000000000000000000000000000000000000081526004016117b191906129fd565b60405180910390fd5b6000806117c784846118a1565b915091506117e88560008484604051806020016040528060008152506117ef565b5050505050565b6117fb858585856118d1565b600073ffffffffffffffffffffffffffffffffffffffff168473ffffffffffffffffffffffffffffffffffffffff161461189a5760006118396110a5565b9050600184510361188957600061185a6000866111b990919063ffffffff16565b905060006118726000866111b990919063ffffffff16565b90506118828389898585896118e3565b5050611898565b611897818787878787611a97565b5b505b5050505050565b60608060405191506001825283602083015260408201905060018152826020820152604081016040529250929050565b6118dd84848484611c4b565b50505050565b60008473ffffffffffffffffffffffffffffffffffffffff163b1115611a8f578373ffffffffffffffffffffffffffffffffffffffff1663f23a6e6187878686866040518663ffffffff1660e01b815260040161194495949392919061346a565b6020604051808303816000875af192505050801561198057506040513d601f19601f8201168201806040525081019061197d91906134d9565b60015b611a04573d80600081146119b0576040519150601f19603f3d011682016040523d82523d6000602084013e6119b5565b606091505b5060008151036119fc57846040517f57f447ce0000000000000000000000000000000000000000000000000000000081526004016119f391906129fd565b60405180910390fd5b805160208201fd5b63f23a6e6160e01b7bffffffffffffffffffffffffffffffffffffffffffffffffffffffff1916817bffffffffffffffffffffffffffffffffffffffffffffffffffffffff191614611a8d57846040517f57f447ce000000000000000000000000000000000000000000000000000000008152600401611a8491906129fd565b60405180910390fd5b505b505050505050565b60008473ffffffffffffffffffffffffffffffffffffffff163b1115611c43578373ffffffffffffffffffffffffffffffffffffffff1663bc197c8187878686866040518663ffffffff1660e01b8152600401611af8959493929190613506565b6020604051808303816000875af1925050508015611b3457506040513d601f19601f82011682018060405250810190611b3191906134d9565b60015b611bb8573d8060008114611b64576040519150601f19603f3d011682016040523d82523d6000602084013e611b69565b606091505b506000815103611bb057846040517f57f447ce000000000000000000000000000000000000000000000000000000008152600401611ba791906129fd565b60405180910390fd5b805160208201fd5b63bc197c8160e01b7bffffffffffffffffffffffffffffffffffffffffffffffffffffffff1916817bffffffffffffffffffffffffffffffffffffffffffffffffffffffff191614611c4157846040517f57f447ce000000000000000000000000000000000000000000000000000000008152600401611c3891906129fd565b60405180910390fd5b505b505050505050565b611c5784848484611de2565b600073ffffffffffffffffffffffffffffffffffffffff168473ffffffffffffffffffffffffffffffffffffffff1603611d27576000805b8351811015611d0b576000611cad82856111b990919063ffffffff16565b90508060046000611cc785896111b990919063ffffffff16565b81526020019081526020016000206000828254611ce4919061356e565b925050819055508083611cf7919061356e565b92505080611d049061300b565b9050611c8f565b508060056000828254611d1e919061356e565b92505081905550505b600073ffffffffffffffffffffffffffffffffffffffff168373ffffffffffffffffffffffffffffffffffffffff1603611ddc576000805b8351811015611dc9576000611d7d82856111b990919063ffffffff16565b90508060046000611d9785896111b990919063ffffffff16565b81526020019081526020016000206000828254039250508190555080830192505080611dc29061300b565b9050611d5f565b5080600560008282540392505081905550505b50505050565b8051825114611e2c57815181516040517f5b059991000000000000000000000000000000000000000000000000000000008152600401611e23929190612f84565b60405180910390fd5b6000611e366110a5565b905060005b835181101561204b576000611e5982866111b990919063ffffffff16565b90506000611e7083866111b990919063ffffffff16565b9050600073ffffffffffffffffffffffffffffffffffffffff168873ffffffffffffffffffffffffffffffffffffffff1614611f9d57600080600084815260200190815260200160002060008a73ffffffffffffffffffffffffffffffffffffffff1673ffffffffffffffffffffffffffffffffffffffff16815260200190815260200160002054905081811015611f4557888183856040517f03dee4c5000000000000000000000000000000000000000000000000000000008152600401611f3c94939291906135a2565b60405180910390fd5b81810360008085815260200190815260200160002060008b73ffffffffffffffffffffffffffffffffffffffff1673ffffffffffffffffffffffffffffffffffffffff16815260200190815260200160002081905550505b600073ffffffffffffffffffffffffffffffffffffffff168773ffffffffffffffffffffffffffffffffffffffff1614612038578060008084815260200190815260200160002060008973ffffffffffffffffffffffffffffffffffffffff1673ffffffffffffffffffffffffffffffffffffffff1681526020019081526020016000206000828254612030919061356e565b925050819055505b5050806120449061300b565b9050611e3b565b50600183510361210a57600061206b6000856111b990919063ffffffff16565b905060006120836000856111b990919063ffffffff16565b90508573ffffffffffffffffffffffffffffffffffffffff168773ffffffffffffffffffffffffffffffffffffffff168473ffffffffffffffffffffffffffffffffffffffff167fc3d58168c5ae7397731d063d5bbf3d657854427343f4c083240f7aacaa2d0f6285856040516120fb929190612f84565b60405180910390a45050612189565b8373ffffffffffffffffffffffffffffffffffffffff168573ffffffffffffffffffffffffffffffffffffffff168273ffffffffffffffffffffffffffffffffffffffff167f4a39dc06d4c0dbc64b70af90fd698a233a518aa5d07e595d983b8c0526c8f7fb86866040516121809291906135e7565b60405180910390a45b5050505050565b6000604051905090565b600080fd5b600080fd5b600073ffffffffffffffffffffffffffffffffffffffff82169050919050565b60006121cf826121a4565b9050919050565b6121df816121c4565b81146121ea57600080fd5b50565b6000813590506121fc816121d6565b92915050565b6000819050919050565b61221581612202565b811461222057600080fd5b50565b6000813590506122328161220c565b92915050565b6000806040838503121561224f5761224e61219a565b5b600061225d858286016121ed565b925050602061226e85828601612223565b9150509250929050565b61228181612202565b82525050565b600060208201905061229c6000830184612278565b92915050565b60007fffffffff0000000000000000000000000000000000000000000000000000000082169050919050565b6122d7816122a2565b81146122e257600080fd5b50565b6000813590506122f4816122ce565b92915050565b6000602082840312156123105761230f61219a565b5b600061231e848285016122e5565b91505092915050565b60008115159050919050565b61233c81612327565b82525050565b60006020820190506123576000830184612333565b92915050565b600081519050919050565b600082825260208201905092915050565b60005b8381101561239757808201518184015260208101905061237c565b60008484015250505050565b6000601f19601f8301169050919050565b60006123bf8261235d565b6123c98185612368565b93506123d9818560208601612379565b6123e2816123a3565b840191505092915050565b6000602082019050818103600083015261240781846123b4565b905092915050565b6000602082840312156124255761242461219a565b5b600061243384828501612223565b91505092915050565b600080604083850312156124535761245261219a565b5b600061246185828601612223565b9250506020612472858286016121ed565b9150509250929050565b600080fd5b7f4e487b7100000000000000000000000000000000000000000000000000000000600052604160045260246000fd5b6124b9826123a3565b810181811067ffffffffffffffff821117156124d8576124d7612481565b5b80604052505050565b60006124eb612190565b90506124f782826124b0565b919050565b600067ffffffffffffffff82111561251757612516612481565b5b602082029050602081019050919050565b600080fd5b600061254061253b846124fc565b6124e1565b9050808382526020820190506020840283018581111561256357612562612528565b5b835b8181101561258c57806125788882612223565b845260208401935050602081019050612565565b5050509392505050565b600082601f8301126125ab576125aa61247c565b5b81356125bb84826020860161252d565b91505092915050565b600080fd5b600067ffffffffffffffff8211156125e4576125e3612481565b5b6125ed826123a3565b9050602081019050919050565b82818337600083830152505050565b600061261c612617846125c9565b6124e1565b905082815260208101848484011115612638576126376125c4565b5b6126438482856125fa565b509392505050565b600082601f8301126126605761265f61247c565b5b8135612670848260208601612609565b91505092915050565b600080600080600060a086880312156126955761269461219a565b5b60006126a3888289016121ed565b95505060206126b4888289016121ed565b945050604086013567ffffffffffffffff8111156126d5576126d461219f565b5b6126e188828901612596565b935050606086013567ffffffffffffffff8111156127025761270161219f565b5b61270e88828901612596565b925050608086013567ffffffffffffffff81111561272f5761272e61219f565b5b61273b8882890161264b565b9150509295509295909350565b600067ffffffffffffffff82111561276357612762612481565b5b602082029050602081019050919050565b600061278761278284612748565b6124e1565b905080838252602082019050602084028301858111156127aa576127a9612528565b5b835b818110156127d357806127bf88826121ed565b8452602084019350506020810190506127ac565b5050509392505050565b600082601f8301126127f2576127f161247c565b5b8135612802848260208601612774565b91505092915050565b600080604083850312156128225761282161219a565b5b600083013567ffffffffffffffff8111156128405761283f61219f565b5b61284c858286016127dd565b925050602083013567ffffffffffffffff81111561286d5761286c61219f565b5b61287985828601612596565b9150509250929050565b600081519050919050565b600082825260208201905092915050565b6000819050602082019050919050565b6128b881612202565b82525050565b60006128ca83836128af565b60208301905092915050565b6000602082019050919050565b60006128ee82612883565b6128f8818561288e565b93506129038361289f565b8060005b8381101561293457815161291b88826128be565b9750612926836128d6565b925050600181019050612907565b5085935050505092915050565b6000602082019050818103600083015261295b81846128e3565b905092915050565b60008060006060848603121561297c5761297b61219a565b5b600061298a868287016121ed565b935050602084013567ffffffffffffffff8111156129ab576129aa61219f565b5b6129b786828701612596565b925050604084013567ffffffffffffffff8111156129d8576129d761219f565b5b6129e486828701612596565b9150509250925092565b6129f7816121c4565b82525050565b6000602082019050612a1260008301846129ee565b92915050565b612a2181612327565b8114612a2c57600080fd5b50565b600081359050612a3e81612a18565b92915050565b60008060408385031215612a5b57612a5a61219a565b5b6000612a69858286016121ed565b9250506020612a7a85828601612a2f565b9150509250929050565b600067ffffffffffffffff821115612a9f57612a9e612481565b5b612aa8826123a3565b9050602081019050919050565b6000612ac8612ac384612a84565b6124e1565b905082815260208101848484011115612ae457612ae36125c4565b5b612aef8482856125fa565b509392505050565b600082601f830112612b0c57612b0b61247c565b5b8135612b1c848260208601612ab5565b91505092915050565b600080600080600060a08688031215612b4157612b4061219a565b5b6000612b4f888289016121ed565b9550506020612b6088828901612223565b9450506040612b7188828901612223565b935050606086013567ffffffffffffffff811115612b9257612b9161219f565b5b612b9e88828901612af7565b925050608086013567ffffffffffffffff811115612bbf57612bbe61219f565b5b612bcb8882890161264b565b9150509295509295909350565b600067ffffffffffffffff821115612bf357612bf2612481565b5b602082029050602081019050919050565b6000612c17612c1284612bd8565b6124e1565b90508083825260208201905060208402830185811115612c3a57612c39612528565b5b835b81811015612c8157803567ffffffffffffffff811115612c5f57612c5e61247c565b5b808601612c6c8982612af7565b85526020850194505050602081019050612c3c565b5050509392505050565b600082601f830112612ca057612c9f61247c565b5b8135612cb0848260208601612c04565b91505092915050565b600080600080600060a08688031215612cd557612cd461219a565b5b6000612ce3888289016121ed565b955050602086013567ffffffffffffffff811115612d0457612d0361219f565b5b612d1088828901612596565b945050604086013567ffffffffffffffff811115612d3157612d3061219f565b5b612d3d88828901612596565b935050606086013567ffffffffffffffff811115612d5e57612d5d61219f565b5b612d6a88828901612c8b565b925050608086013567ffffffffffffffff811115612d8b57612d8a61219f565b5b612d978882890161264b565b9150509295509295909350565b60008060408385031215612dbb57612dba61219a565b5b6000612dc9858286016121ed565b9250506020612dda858286016121ed565b9150509250929050565b600080600080600060a08688031215612e0057612dff61219a565b5b6000612e0e888289016121ed565b9550506020612e1f888289016121ed565b9450506040612e3088828901612223565b9350506060612e4188828901612223565b925050608086013567ffffffffffffffff811115612e6257612e6161219f565b5b612e6e8882890161264b565b9150509295509295909350565b600060208284031215612e9157612e9061219a565b5b6000612e9f848285016121ed565b91505092915050565b600080600060608486031215612ec157612ec061219a565b5b6000612ecf868287016121ed565b9350506020612ee086828701612223565b9250506040612ef186828701612223565b9150509250925092565b7f4e487b7100000000000000000000000000000000000000000000000000000000600052602260045260246000fd5b60006002820490506001821680612f4257607f821691505b602082108103612f5557612f54612efb565b5b50919050565b6000604082019050612f7060008301856129ee565b612f7d60208301846129ee565b9392505050565b6000604082019050612f996000830185612278565b612fa66020830184612278565b9392505050565b7f4e487b7100000000000000000000000000000000000000000000000000000000600052603260045260246000fd5b7f4e487b7100000000000000000000000000000000000000000000000000000000600052601160045260246000fd5b600061301682612202565b91507fffffffffffffffffffffffffffffffffffffffffffffffffffffffffffffffff820361304857613047612fdc565b5b600182019050919050565b60008190508160005260206000209050919050565b60006020601f8301049050919050565b600082821b905092915050565b6000600883026130b57fffffffffffffffffffffffffffffffffffffffffffffffffffffffffffffffff82613078565b6130bf8683613078565b95508019841693508086168417925050509392505050565b6000819050919050565b60006130fc6130f76130f284612202565b6130d7565b612202565b9050919050565b6000819050919050565b613116836130e1565b61312a61312282613103565b848454613085565b825550505050565b600090565b61313f613132565b61314a81848461310d565b505050565b5b8181101561316e57613163600082613137565b600181019050613150565b5050565b601f8211156131b35761318481613053565b61318d84613068565b8101602085101561319c578190505b6131b06131a885613068565b83018261314f565b50505b505050565b600082821c905092915050565b60006131d6600019846008026131b8565b1980831691505092915050565b60006131ef83836131c5565b9150826002028217905092915050565b6132088261235d565b67ffffffffffffffff81111561322157613220612481565b5b61322b8254612f2a565b613236828285613172565b600060209050601f8311600181146132695760008415613257578287015190505b61326185826131e3565b8655506132c9565b601f19841661327786613053565b60005b8281101561329f5784890151825560018201915060208501945060208101905061327a565b868310156132bc57848901516132b8601f8916826131c5565b8355505b6001600288020188555050505b505050505050565b7f55524973206d757374206d617463682049447300000000000000000000000000600082015250565b6000613307601383612368565b9150613312826132d1565b602082019050919050565b60006020820190508181036000830152613336816132fa565b9050919050565b7f5573657220646f6573206e6f74206f776e2074686973204e4654000000000000600082015250565b6000613373601a83612368565b915061337e8261333d565b602082019050919050565b600060208201905081810360008301526133a281613366565b9050919050565b7f41636365737320616c7265616479207573656400000000000000000000000000600082015250565b60006133df601383612368565b91506133ea826133a9565b602082019050919050565b6000602082019050818103600083015261340e816133d2565b9050919050565b600081519050919050565b600082825260208201905092915050565b600061343c82613415565b6134468185613420565b9350613456818560208601612379565b61345f816123a3565b840191505092915050565b600060a08201905061347f60008301886129ee565b61348c60208301876129ee565b6134996040830186612278565b6134a66060830185612278565b81810360808301526134b88184613431565b90509695505050505050565b6000815190506134d3816122ce565b92915050565b6000602082840312156134ef576134ee61219a565b5b60006134fd848285016134c4565b91505092915050565b600060a08201905061351b60008301886129ee565b61352860208301876129ee565b818103604083015261353a81866128e3565b9050818103606083015261354e81856128e3565b905081810360808301526135628184613431565b90509695505050505050565b600061357982612202565b915061358483612202565b925082820190508082111561359c5761359b612fdc565b5b92915050565b60006080820190506135b760008301876129ee565b6135c46020830186612278565b6135d16040830185612278565b6135de6060830184612278565b95945050505050565b6000604082019050818103600083015261360181856128e3565b9050818103602083015261361581846128e3565b9050939250505056fea2646970667358221220b13b9cfc1eca798e46c387a2acd0ccb4967d4c07d46812b941d84810824d488f64736f6c63430008140033",
  "linkReferences": {},
  "deployedLinkReferences": {}
}